{
  "contractName": "Marketplace",
  "abi": [
    {
      "inputs": [],
      "stateMutability": "nonpayable",
      "type": "constructor"
    },
    {
      "anonymous": false,
      "inputs": [
        {
          "indexed": true,
          "internalType": "address",
          "name": "seller",
          "type": "address"
        },
        {
          "indexed": false,
          "internalType": "uint256",
          "name": "amount",
          "type": "uint256"
        }
      ],
      "name": "FundsWithdrawn",
      "type": "event"
    },
    {
      "anonymous": false,
      "inputs": [
        {
          "indexed": true,
          "internalType": "uint256",
          "name": "orderId",
          "type": "uint256"
        },
        {
          "indexed": true,
          "internalType": "address",
          "name": "seller",
          "type": "address"
        },
        {
          "indexed": false,
          "internalType": "uint256",
          "name": "amount",
          "type": "uint256"
        }
      ],
      "name": "OrderCompleted",
      "type": "event"
    },
    {
      "anonymous": false,
      "inputs": [
        {
          "indexed": true,
          "internalType": "uint256",
          "name": "orderId",
          "type": "uint256"
        },
        {
          "indexed": false,
          "internalType": "enum Marketplace.OrderStatus",
          "name": "status",
          "type": "uint8"
        }
      ],
      "name": "OrderStatusUpdated",
      "type": "event"
    },
    {
      "anonymous": false,
      "inputs": [
        {
          "indexed": false,
          "internalType": "uint256",
          "name": "amount",
          "type": "uint256"
        }
      ],
      "name": "PlatformCommissionWithdrawn",
      "type": "event"
    },
    {
      "anonymous": false,
      "inputs": [
        {
          "indexed": true,
          "internalType": "uint256",
          "name": "productId",
          "type": "uint256"
        },
        {
          "indexed": true,
          "internalType": "address",
          "name": "seller",
          "type": "address"
        },
        {
          "indexed": false,
          "internalType": "string",
          "name": "name",
          "type": "string"
        },
        {
          "indexed": false,
          "internalType": "uint256",
          "name": "price",
          "type": "uint256"
        }
      ],
      "name": "ProductAdded",
      "type": "event"
    },
    {
      "anonymous": false,
      "inputs": [
        {
          "indexed": true,
          "internalType": "uint256",
          "name": "orderId",
          "type": "uint256"
        },
        {
          "indexed": true,
          "internalType": "uint256",
          "name": "productId",
          "type": "uint256"
        },
        {
          "indexed": true,
          "internalType": "address",
          "name": "buyer",
          "type": "address"
        },
        {
          "indexed": false,
          "internalType": "uint256",
          "name": "quantity",
          "type": "uint256"
        },
        {
          "indexed": false,
          "internalType": "uint256",
          "name": "totalPrice",
          "type": "uint256"
        }
      ],
      "name": "ProductPurchased",
      "type": "event"
    },
    {
      "anonymous": false,
      "inputs": [
        {
          "indexed": true,
          "internalType": "uint256",
          "name": "productId",
          "type": "uint256"
        },
        {
          "indexed": true,
          "internalType": "address",
          "name": "buyer",
          "type": "address"
        },
        {
          "indexed": false,
          "internalType": "uint256",
          "name": "rating",
          "type": "uint256"
        }
      ],
      "name": "ProductReviewed",
      "type": "event"
    },
    {
      "anonymous": false,
      "inputs": [
        {
          "indexed": true,
          "internalType": "uint256",
          "name": "productId",
          "type": "uint256"
        },
        {
          "indexed": false,
          "internalType": "string",
          "name": "name",
          "type": "string"
        },
        {
          "indexed": false,
          "internalType": "uint256",
          "name": "price",
          "type": "uint256"
        },
        {
          "indexed": false,
          "internalType": "uint256",
          "name": "stock",
          "type": "uint256"
        }
      ],
      "name": "ProductUpdated",
      "type": "event"
    },
    {
      "anonymous": false,
      "inputs": [
        {
          "indexed": true,
          "internalType": "address",
          "name": "seller",
          "type": "address"
        },
        {
          "indexed": false,
          "internalType": "string",
          "name": "name",
          "type": "string"
        },
        {
          "indexed": false,
          "internalType": "uint256",
          "name": "timestamp",
          "type": "uint256"
        }
      ],
      "name": "SellerRegistered",
      "type": "event"
    },
    {
      "inputs": [
        {
          "internalType": "address",
          "name": "",
          "type": "address"
        },
        {
          "internalType": "uint256",
          "name": "",
          "type": "uint256"
        }
      ],
      "name": "buyerOrders",
      "outputs": [
        {
          "internalType": "uint256",
          "name": "",
          "type": "uint256"
        }
      ],
      "stateMutability": "view",
      "type": "function",
      "constant": true
    },
    {
      "inputs": [
        {
          "internalType": "address",
          "name": "",
          "type": "address"
        },
        {
          "internalType": "uint256",
          "name": "",
          "type": "uint256"
        }
      ],
      "name": "hasPurchased",
      "outputs": [
        {
          "internalType": "bool",
          "name": "",
          "type": "bool"
        }
      ],
      "stateMutability": "view",
      "type": "function",
      "constant": true
    },
    {
      "inputs": [],
      "name": "orderCounter",
      "outputs": [
        {
          "internalType": "uint256",
          "name": "",
          "type": "uint256"
        }
      ],
      "stateMutability": "view",
      "type": "function",
      "constant": true
    },
    {
      "inputs": [
        {
          "internalType": "uint256",
          "name": "",
          "type": "uint256"
        }
      ],
      "name": "orders",
      "outputs": [
        {
          "internalType": "uint256",
          "name": "id",
          "type": "uint256"
        },
        {
          "internalType": "uint256",
          "name": "productId",
          "type": "uint256"
        },
        {
          "internalType": "address",
          "name": "buyer",
          "type": "address"
        },
        {
          "internalType": "address",
          "name": "seller",
          "type": "address"
        },
        {
          "internalType": "uint256",
          "name": "quantity",
          "type": "uint256"
        },
        {
          "internalType": "uint256",
          "name": "totalPrice",
          "type": "uint256"
        },
        {
          "internalType": "uint256",
          "name": "sellerAmount",
          "type": "uint256"
        },
        {
          "internalType": "uint256",
          "name": "platformFee",
          "type": "uint256"
        },
        {
          "internalType": "enum Marketplace.OrderStatus",
          "name": "status",
          "type": "uint8"
        },
        {
          "internalType": "uint256",
          "name": "createdAt",
          "type": "uint256"
        },
        {
          "internalType": "uint256",
          "name": "completedAt",
          "type": "uint256"
        }
      ],
      "stateMutability": "view",
      "type": "function",
      "constant": true
    },
    {
      "inputs": [],
      "name": "platformCommissionRate",
      "outputs": [
        {
          "internalType": "uint256",
          "name": "",
          "type": "uint256"
        }
      ],
      "stateMutability": "view",
      "type": "function",
      "constant": true
    },
    {
      "inputs": [],
      "name": "platformOwner",
      "outputs": [
        {
          "internalType": "address",
          "name": "",
          "type": "address"
        }
      ],
      "stateMutability": "view",
      "type": "function",
      "constant": true
    },
    {
      "inputs": [],
      "name": "productCounter",
      "outputs": [
        {
          "internalType": "uint256",
          "name": "",
          "type": "uint256"
        }
      ],
      "stateMutability": "view",
      "type": "function",
      "constant": true
    },
    {
      "inputs": [
        {
          "internalType": "uint256",
          "name": "",
          "type": "uint256"
        },
        {
          "internalType": "uint256",
          "name": "",
          "type": "uint256"
        }
      ],
      "name": "productReviews",
      "outputs": [
        {
          "internalType": "address",
          "name": "buyer",
          "type": "address"
        },
        {
          "internalType": "uint256",
          "name": "rating",
          "type": "uint256"
        },
        {
          "internalType": "string",
          "name": "comment",
          "type": "string"
        },
        {
          "internalType": "uint256",
          "name": "timestamp",
          "type": "uint256"
        }
      ],
      "stateMutability": "view",
      "type": "function",
      "constant": true
    },
    {
      "inputs": [
        {
          "internalType": "uint256",
          "name": "",
          "type": "uint256"
        }
      ],
      "name": "products",
      "outputs": [
        {
          "internalType": "uint256",
          "name": "id",
          "type": "uint256"
        },
        {
          "internalType": "string",
          "name": "name",
          "type": "string"
        },
        {
          "internalType": "string",
          "name": "description",
          "type": "string"
        },
        {
          "internalType": "string",
          "name": "imageHash",
          "type": "string"
        },
        {
          "internalType": "uint256",
          "name": "price",
          "type": "uint256"
        },
        {
          "internalType": "uint256",
          "name": "stock",
          "type": "uint256"
        },
        {
          "internalType": "enum Marketplace.ProductCategory",
          "name": "category",
          "type": "uint8"
        },
        {
          "internalType": "address",
          "name": "seller",
          "type": "address"
        },
        {
          "internalType": "bool",
          "name": "isActive",
          "type": "bool"
        },
        {
          "internalType": "uint256",
          "name": "totalSales",
          "type": "uint256"
        },
        {
          "internalType": "uint256",
          "name": "rating",
          "type": "uint256"
        },
        {
          "internalType": "uint256",
          "name": "totalRatings",
          "type": "uint256"
        },
        {
          "internalType": "uint256",
          "name": "createdAt",
          "type": "uint256"
        }
      ],
      "stateMutability": "view",
      "type": "function",
      "constant": true
    },
    {
      "inputs": [],
      "name": "sellerCounter",
      "outputs": [
        {
          "internalType": "uint256",
          "name": "",
          "type": "uint256"
        }
      ],
      "stateMutability": "view",
      "type": "function",
      "constant": true
    },
    {
      "inputs": [
        {
          "internalType": "address",
          "name": "",
          "type": "address"
        },
        {
          "internalType": "uint256",
          "name": "",
          "type": "uint256"
        }
      ],
      "name": "sellerProducts",
      "outputs": [
        {
          "internalType": "uint256",
          "name": "",
          "type": "uint256"
        }
      ],
      "stateMutability": "view",
      "type": "function",
      "constant": true
    },
    {
      "inputs": [
        {
          "internalType": "address",
          "name": "",
          "type": "address"
        }
      ],
      "name": "sellers",
      "outputs": [
        {
          "internalType": "address",
          "name": "sellerAddress",
          "type": "address"
        },
        {
          "internalType": "string",
          "name": "name",
          "type": "string"
        },
        {
          "internalType": "bool",
          "name": "isRegistered",
          "type": "bool"
        },
        {
          "internalType": "bool",
          "name": "isActive",
          "type": "bool"
        },
        {
          "internalType": "uint256",
          "name": "totalSales",
          "type": "uint256"
        },
        {
          "internalType": "uint256",
          "name": "totalEarnings",
          "type": "uint256"
        },
        {
          "internalType": "uint256",
          "name": "pendingWithdrawal",
          "type": "uint256"
        },
        {
          "internalType": "uint256",
          "name": "rating",
          "type": "uint256"
        },
        {
          "internalType": "uint256",
          "name": "totalRatings",
          "type": "uint256"
        },
        {
          "internalType": "uint256",
          "name": "registeredAt",
          "type": "uint256"
        }
      ],
      "stateMutability": "view",
      "type": "function",
      "constant": true
    },
    {
      "inputs": [],
      "name": "totalPlatformEarnings",
      "outputs": [
        {
          "internalType": "uint256",
          "name": "",
          "type": "uint256"
        }
      ],
      "stateMutability": "view",
      "type": "function",
      "constant": true
    },
    {
      "inputs": [
        {
          "internalType": "string",
          "name": "_name",
          "type": "string"
        }
      ],
      "name": "registerSeller",
      "outputs": [],
      "stateMutability": "nonpayable",
      "type": "function"
    },
    {
      "inputs": [
        {
          "internalType": "string",
          "name": "_name",
          "type": "string"
        },
        {
          "internalType": "string",
          "name": "_description",
          "type": "string"
        },
        {
          "internalType": "string",
          "name": "_imageHash",
          "type": "string"
        },
        {
          "internalType": "uint256",
          "name": "_price",
          "type": "uint256"
        },
        {
          "internalType": "uint256",
          "name": "_stock",
          "type": "uint256"
        },
        {
          "internalType": "enum Marketplace.ProductCategory",
          "name": "_category",
          "type": "uint8"
        }
      ],
      "name": "addProduct",
      "outputs": [],
      "stateMutability": "nonpayable",
      "type": "function"
    },
    {
      "inputs": [
        {
          "internalType": "uint256",
          "name": "_productId",
          "type": "uint256"
        },
        {
          "internalType": "string",
          "name": "_name",
          "type": "string"
        },
        {
          "internalType": "string",
          "name": "_description",
          "type": "string"
        },
        {
          "internalType": "string",
          "name": "_imageHash",
          "type": "string"
        },
        {
          "internalType": "uint256",
          "name": "_price",
          "type": "uint256"
        },
        {
          "internalType": "uint256",
          "name": "_stock",
          "type": "uint256"
        }
      ],
      "name": "updateProduct",
      "outputs": [],
      "stateMutability": "nonpayable",
      "type": "function"
    },
    {
      "inputs": [
        {
          "internalType": "uint256",
          "name": "_productId",
          "type": "uint256"
        }
      ],
      "name": "toggleProductStatus",
      "outputs": [],
      "stateMutability": "nonpayable",
      "type": "function"
    },
    {
      "inputs": [],
      "name": "withdrawEarnings",
      "outputs": [],
      "stateMutability": "nonpayable",
      "type": "function"
    },
    {
      "inputs": [
        {
          "internalType": "uint256",
          "name": "_productId",
          "type": "uint256"
        },
        {
          "internalType": "uint256",
          "name": "_quantity",
          "type": "uint256"
        }
      ],
      "name": "purchaseProduct",
      "outputs": [],
      "stateMutability": "payable",
      "type": "function",
      "payable": true
    },
    {
      "inputs": [
        {
          "internalType": "uint256",
          "name": "_orderId",
          "type": "uint256"
        }
      ],
      "name": "confirmDelivery",
      "outputs": [],
      "stateMutability": "nonpayable",
      "type": "function"
    },
    {
      "inputs": [
        {
          "internalType": "uint256",
          "name": "_productId",
          "type": "uint256"
        },
        {
          "internalType": "uint256",
          "name": "_rating",
          "type": "uint256"
        },
        {
          "internalType": "string",
          "name": "_comment",
          "type": "string"
        }
      ],
      "name": "reviewProduct",
      "outputs": [],
      "stateMutability": "nonpayable",
      "type": "function"
    },
    {
      "inputs": [
        {
          "internalType": "uint256",
          "name": "_orderId",
          "type": "uint256"
        }
      ],
      "name": "markOrderAsShipped",
      "outputs": [],
      "stateMutability": "nonpayable",
      "type": "function"
    },
    {
      "inputs": [],
      "name": "withdrawPlatformEarnings",
      "outputs": [],
      "stateMutability": "nonpayable",
      "type": "function"
    },
    {
      "inputs": [
        {
          "internalType": "uint256",
          "name": "_newRate",
          "type": "uint256"
        }
      ],
      "name": "updateCommissionRate",
      "outputs": [],
      "stateMutability": "nonpayable",
      "type": "function"
    },
    {
      "inputs": [],
      "name": "getAllProducts",
      "outputs": [
        {
          "components": [
            {
              "internalType": "uint256",
              "name": "id",
              "type": "uint256"
            },
            {
              "internalType": "string",
              "name": "name",
              "type": "string"
            },
            {
              "internalType": "string",
              "name": "description",
              "type": "string"
            },
            {
              "internalType": "string",
              "name": "imageHash",
              "type": "string"
            },
            {
              "internalType": "uint256",
              "name": "price",
              "type": "uint256"
            },
            {
              "internalType": "uint256",
              "name": "stock",
              "type": "uint256"
            },
            {
              "internalType": "enum Marketplace.ProductCategory",
              "name": "category",
              "type": "uint8"
            },
            {
              "internalType": "address",
              "name": "seller",
              "type": "address"
            },
            {
              "internalType": "bool",
              "name": "isActive",
              "type": "bool"
            },
            {
              "internalType": "uint256",
              "name": "totalSales",
              "type": "uint256"
            },
            {
              "internalType": "uint256",
              "name": "rating",
              "type": "uint256"
            },
            {
              "internalType": "uint256",
              "name": "totalRatings",
              "type": "uint256"
            },
            {
              "internalType": "uint256",
              "name": "createdAt",
              "type": "uint256"
            }
          ],
          "internalType": "struct Marketplace.Product[]",
          "name": "",
          "type": "tuple[]"
        }
      ],
      "stateMutability": "view",
      "type": "function",
      "constant": true
    },
    {
      "inputs": [],
      "name": "getActiveProducts",
      "outputs": [
        {
          "components": [
            {
              "internalType": "uint256",
              "name": "id",
              "type": "uint256"
            },
            {
              "internalType": "string",
              "name": "name",
              "type": "string"
            },
            {
              "internalType": "string",
              "name": "description",
              "type": "string"
            },
            {
              "internalType": "string",
              "name": "imageHash",
              "type": "string"
            },
            {
              "internalType": "uint256",
              "name": "price",
              "type": "uint256"
            },
            {
              "internalType": "uint256",
              "name": "stock",
              "type": "uint256"
            },
            {
              "internalType": "enum Marketplace.ProductCategory",
              "name": "category",
              "type": "uint8"
            },
            {
              "internalType": "address",
              "name": "seller",
              "type": "address"
            },
            {
              "internalType": "bool",
              "name": "isActive",
              "type": "bool"
            },
            {
              "internalType": "uint256",
              "name": "totalSales",
              "type": "uint256"
            },
            {
              "internalType": "uint256",
              "name": "rating",
              "type": "uint256"
            },
            {
              "internalType": "uint256",
              "name": "totalRatings",
              "type": "uint256"
            },
            {
              "internalType": "uint256",
              "name": "createdAt",
              "type": "uint256"
            }
          ],
          "internalType": "struct Marketplace.Product[]",
          "name": "",
          "type": "tuple[]"
        }
      ],
      "stateMutability": "view",
      "type": "function",
      "constant": true
    },
    {
      "inputs": [
        {
          "internalType": "address",
          "name": "_seller",
          "type": "address"
        }
      ],
      "name": "getSellerProducts",
      "outputs": [
        {
          "internalType": "uint256[]",
          "name": "",
          "type": "uint256[]"
        }
      ],
      "stateMutability": "view",
      "type": "function",
      "constant": true
    },
    {
      "inputs": [
        {
          "internalType": "address",
          "name": "_buyer",
          "type": "address"
        }
      ],
      "name": "getBuyerOrders",
      "outputs": [
        {
          "internalType": "uint256[]",
          "name": "",
          "type": "uint256[]"
        }
      ],
      "stateMutability": "view",
      "type": "function",
      "constant": true
    },
    {
      "inputs": [
        {
          "internalType": "uint256",
          "name": "_productId",
          "type": "uint256"
        }
      ],
      "name": "getProductReviews",
      "outputs": [
        {
          "components": [
            {
              "internalType": "address",
              "name": "buyer",
              "type": "address"
            },
            {
              "internalType": "uint256",
              "name": "rating",
              "type": "uint256"
            },
            {
              "internalType": "string",
              "name": "comment",
              "type": "string"
            },
            {
              "internalType": "uint256",
              "name": "timestamp",
              "type": "uint256"
            }
          ],
          "internalType": "struct Marketplace.Review[]",
          "name": "",
          "type": "tuple[]"
        }
      ],
      "stateMutability": "view",
      "type": "function",
      "constant": true
    },
    {
      "inputs": [
        {
          "internalType": "address",
          "name": "_seller",
          "type": "address"
        }
      ],
      "name": "getSellerInfo",
      "outputs": [
        {
          "components": [
            {
              "internalType": "address",
              "name": "sellerAddress",
              "type": "address"
            },
            {
              "internalType": "string",
              "name": "name",
              "type": "string"
            },
            {
              "internalType": "bool",
              "name": "isRegistered",
              "type": "bool"
            },
            {
              "internalType": "bool",
              "name": "isActive",
              "type": "bool"
            },
            {
              "internalType": "uint256",
              "name": "totalSales",
              "type": "uint256"
            },
            {
              "internalType": "uint256",
              "name": "totalEarnings",
              "type": "uint256"
            },
            {
              "internalType": "uint256",
              "name": "pendingWithdrawal",
              "type": "uint256"
            },
            {
              "internalType": "uint256",
              "name": "rating",
              "type": "uint256"
            },
            {
              "internalType": "uint256",
              "name": "totalRatings",
              "type": "uint256"
            },
            {
              "internalType": "uint256",
              "name": "registeredAt",
              "type": "uint256"
            }
          ],
          "internalType": "struct Marketplace.Seller",
          "name": "",
          "type": "tuple"
        }
      ],
      "stateMutability": "view",
      "type": "function",
      "constant": true
    },
    {
      "inputs": [
        {
          "internalType": "address",
          "name": "_address",
          "type": "address"
        }
      ],
      "name": "isRegisteredSeller",
      "outputs": [
        {
          "internalType": "bool",
          "name": "",
          "type": "bool"
        }
      ],
      "stateMutability": "view",
      "type": "function",
      "constant": true
    },
    {
      "inputs": [],
      "name": "getPlatformStats",
      "outputs": [
        {
          "internalType": "uint256",
          "name": "totalProducts",
          "type": "uint256"
        },
        {
          "internalType": "uint256",
          "name": "totalOrders",
          "type": "uint256"
        },
        {
          "internalType": "uint256",
          "name": "totalSellers",
          "type": "uint256"
        },
        {
          "internalType": "uint256",
          "name": "platformEarnings",
          "type": "uint256"
        },
        {
          "internalType": "uint256",
          "name": "commissionRate",
          "type": "uint256"
        }
      ],
      "stateMutability": "view",
      "type": "function",
      "constant": true
    }
  ],
  "bytecode": "0x6080604052600260015560006003556000600455600060055534801561002457600080fd5b50600080546001600160a01b0319163317905561380a806100466000396000f3fe6080604052600436106101e15760003560e01c80639d182f0b11610102578063bfa4c5c111610095578063cf317b7e11610064578063cf317b7e1461064d578063e6a93e161461067a578063f2943dce1461069a578063fd84cb97146106ca57600080fd5b8063bfa4c5c1146105e2578063c1302b34146105f8578063c36ae76614610618578063ca0f46c01461063857600080fd5b8063b73c6ce9116100d1578063b73c6ce914610577578063b789bf521461058c578063bab8d872146105a2578063befd2faa146105c257600080fd5b80639d182f0b14610486578063a04404261461049b578063a45f2ebc146104ae578063a85c38ef146104db57600080fd5b806346a4237b1161017a57806378e96fb51161014957806378e96fb5146103f75780637acc0b2014610417578063828abfaf146104505780638a5f67231461047057600080fd5b806346a4237b1461033c5780634df8ccb11461036957806363b48852146103a15780636d47ab72146103c157600080fd5b8063136d8883116101b6578063136d88831461029e5780631da4dd0d146102e25780631f16653b146103065780634500cb601461031c57600080fd5b8062f73d4c146101e6578062fa3d501461020857806302ee3a52146102285780631192313214610253575b600080fd5b3480156101f257600080fd5b50610206610201366004612d4c565b6106ea565b005b34801561021457600080fd5b50610206610223366004612d9c565b6109ae565b34801561023457600080fd5b5061023d610a38565b60405161024a9190612e25565b60405180910390f35b34801561025f57600080fd5b5061028e61026e366004612f62565b600c60209081526000928352604080842090915290825290205460ff1681565b604051901515815260200161024a565b3480156102aa57600080fd5b50600354600454600554600254600154604080519586526020860194909452928401919091526060830152608082015260a00161024a565b3480156102ee57600080fd5b506102f860015481565b60405190815260200161024a565b34801561031257600080fd5b506102f860035481565b34801561032857600080fd5b506102f8610337366004612f62565b610d56565b34801561034857600080fd5b5061035c610357366004612d9c565b610d87565b60405161024a9190612f8c565b34801561037557600080fd5b50600054610389906001600160a01b031681565b6040516001600160a01b03909116815260200161024a565b3480156103ad57600080fd5b506102066103bc366004613015565b610eb5565b3480156103cd57600080fd5b506103e16103dc366004613052565b6110ae565b60405161024a9a99989796959493929190613074565b34801561040357600080fd5b5061028e610412366004613052565b611196565b34801561042357600080fd5b50610437610432366004612d9c565b6111e7565b60405161024a9d9c9b9a999897969594939291906130db565b34801561045c57600080fd5b5061020661046b366004612d9c565b6113f1565b34801561047c57600080fd5b506102f860055481565b34801561049257600080fd5b50610206611575565b6102066104a936600461317c565b6116c2565b3480156104ba57600080fd5b506104ce6104c9366004613052565b611b6b565b60405161024a919061319e565b3480156104e757600080fd5b506105606104f6366004612d9c565b600860208190526000918252604090912080546001820154600283015460038401546004850154600586015460068701546007880154988801546009890154600a90990154979996986001600160a01b039687169895909616969395929491939260ff909116918b565b60405161024a9b9a999897969594939291906131f2565b34801561058357600080fd5b50610206611bd7565b34801561059857600080fd5b506102f860045481565b3480156105ae57600080fd5b506102066105bd36600461325d565b611d8c565b3480156105ce57600080fd5b506102066105dd366004613301565b611f2b565b3480156105ee57600080fd5b506102f860025481565b34801561060457600080fd5b506102f8610613366004612f62565b6122b8565b34801561062457600080fd5b50610206610633366004612d9c565b6122d4565b34801561064457600080fd5b5061023d612375565b34801561065957600080fd5b5061066d610668366004613052565b6126e5565b60405161024a91906133b4565b34801561068657600080fd5b506104ce610695366004613052565b61286e565b3480156106a657600080fd5b506106ba6106b536600461317c565b6128d8565b60405161024a949392919061345f565b3480156106d657600080fd5b506102066106e5366004612d9c565b6129b4565b826000811180156106fd57506003548111155b6107225760405162461bcd60e51b815260040161071990613497565b60405180910390fd5b336000908152600c6020908152604080832087845290915290205460ff1661079c5760405162461bcd60e51b815260206004820152602760248201527f596f75206d757374207075726368617365207468652070726f6475637420746f6044820152662072657669657760c81b6064820152608401610719565b600183101580156107ae575060058311155b6107fa5760405162461bcd60e51b815260206004820152601e60248201527f526174696e67206d757374206265206265747765656e203120616e64203500006044820152606401610719565b600084815260076020908152604080832060098352818420825160808101845233815280850189815293810188815242606083015282546001808201855593885295909620815160049096020180546001600160a01b0319166001600160a01b039096169590951785559251908401559251909190600282019061087e908261354a565b506060919091015160039091015560098101805490600061089e83613620565b909155505060098101546108b3856064613639565b600183600901546108c49190613650565b83600801546108d39190613639565b6108dd9190613663565b6108e79190613676565b600882015560068082015461010090046001600160a01b0316600090815260209190915260408120600781018054919261092083613620565b90915550506007810154610935866064613639565b600183600701546109469190613650565b83600601546109559190613639565b61095f9190613663565b6109699190613676565b6006820155604051858152339087907f4e8c9f57e2f2b7080e6e94a680079d07b47f655f0095ee772bc0adecb4f928f9906020015b60405180910390a3505050505050565b6000546001600160a01b031633146109d85760405162461bcd60e51b815260040161071990613698565b600a811115610a335760405162461bcd60e51b815260206004820152602160248201527f436f6d6d697373696f6e20726174652063616e6e6f74206578636565642031306044820152602560f81b6064820152608401610719565b600155565b6060600060035467ffffffffffffffff811115610a5757610a57612ca9565b604051908082528060200260200182016040528015610a9057816020015b610a7d612c25565b815260200190600190039081610a755790505b50905060015b6003548111610d505760076000828152602001908152602001600020604051806101a001604052908160008201548152602001600182018054610ad8906134c7565b80601f0160208091040260200160405190810160405280929190818152602001828054610b04906134c7565b8015610b515780601f10610b2657610100808354040283529160200191610b51565b820191906000526020600020905b815481529060010190602001808311610b3457829003601f168201915b50505050508152602001600282018054610b6a906134c7565b80601f0160208091040260200160405190810160405280929190818152602001828054610b96906134c7565b8015610be35780601f10610bb857610100808354040283529160200191610be3565b820191906000526020600020905b815481529060010190602001808311610bc657829003601f168201915b50505050508152602001600382018054610bfc906134c7565b80601f0160208091040260200160405190810160405280929190818152602001828054610c28906134c7565b8015610c755780601f10610c4a57610100808354040283529160200191610c75565b820191906000526020600020905b815481529060010190602001808311610c5857829003601f168201915b5050509183525050600482015460208201526005808301546040830152600683015460609092019160ff1690811115610cb057610cb0612dfb565b6005811115610cc157610cc1612dfb565b8152600682015461010081046001600160a01b03166020830152600160a81b900460ff16151560408201526007820154606082015260088201546080820152600982015460a0820152600a9091015460c09091015282610d22600184613650565b81518110610d3257610d326136e3565b60200260200101819052508080610d4890613620565b915050610a96565b50919050565b600b6020528160005260406000208181548110610d7257600080fd5b90600052602060002001600091509150505481565b606060096000838152602001908152602001600020805480602002602001604051908101604052809291908181526020016000905b82821015610eaa576000848152602090819020604080516080810182526004860290920180546001600160a01b0316835260018101549383019390935260028301805492939291840191610e0f906134c7565b80601f0160208091040260200160405190810160405280929190818152602001828054610e3b906134c7565b8015610e885780601f10610e5d57610100808354040283529160200191610e88565b820191906000526020600020905b815481529060010190602001808311610e6b57829003601f168201915b5050505050815260200160038201548152505081526020019060010190610dbc565b505050509050919050565b3360009081526006602052604090206002015460ff1615610f185760405162461bcd60e51b815260206004820152601c60248201527f416c726561647920726567697374657265642061732073656c6c6572000000006044820152606401610719565b6000815111610f605760405162461bcd60e51b81526020600482015260146024820152734e616d652063616e6e6f7420626520656d70747960601b6044820152606401610719565b60058054906000610f7083613620565b9091555050604080516101408101825233808252602080830185815260018486018190526060850181905260006080860181905260a0860181905260c086018190526101f460e0870152610100860181905242610120870152938452600690925293909120825181546001600160a01b0319166001600160a01b03909116178155925191929190820190611004908261354a565b50604082810151600283018054606086015161ffff1990911692151561ff0019169290921761010092151583021790556080840151600384015560a0840151600484015560c0840151600584015560e084015160068401558301516007830155610120909201516008909101555133907f214abe42c5a68ae0efa0e66475eaea293d0e9399052fb6e5fa12f93f5a7ed106906110a390849042906136f9565b60405180910390a250565b600660205260009081526040902080546001820180546001600160a01b0390921692916110da906134c7565b80601f0160208091040260200160405190810160405280929190818152602001828054611106906134c7565b80156111535780601f1061112857610100808354040283529160200191611153565b820191906000526020600020905b81548152906001019060200180831161113657829003601f168201915b505050600284015460038501546004860154600587015460068801546007890154600890990154979860ff8087169961010090970416975093955091939092908a565b6001600160a01b03811660009081526006602052604081206002015460ff1680156111e157506001600160a01b038216600090815260066020526040902060020154610100900460ff165b92915050565b60076020526000908152604090208054600182018054919291611209906134c7565b80601f0160208091040260200160405190810160405280929190818152602001828054611235906134c7565b80156112825780601f1061125757610100808354040283529160200191611282565b820191906000526020600020905b81548152906001019060200180831161126557829003601f168201915b505050505090806002018054611297906134c7565b80601f01602080910402602001604051908101604052809291908181526020018280546112c3906134c7565b80156113105780601f106112e557610100808354040283529160200191611310565b820191906000526020600020905b8154815290600101906020018083116112f357829003601f168201915b505050505090806003018054611325906134c7565b80601f0160208091040260200160405190810160405280929190818152602001828054611351906134c7565b801561139e5780601f106113735761010080835404028352916020019161139e565b820191906000526020600020905b81548152906001019060200180831161138157829003601f168201915b50505050600483015460058401546006850154600786015460088701546009880154600a909801549697949693955060ff8084169561010085046001600160a01b031695600160a81b909504909116938d565b8060008111801561140457506004548111155b6114475760405162461bcd60e51b815260206004820152601460248201527313dc99195c88191bd95cc81b9bdd08195e1a5cdd60621b6044820152606401610719565b600082815260086020526040902060038101546001600160a01b031633146114bd5760405162461bcd60e51b815260206004820152602360248201527f4f6e6c792073656c6c65722063616e20757064617465206f726465722073746160448201526274757360e81b6064820152608401610719565b6000600882015460ff1660048111156114d8576114d8612dfb565b146115255760405162461bcd60e51b815260206004820152601d60248201527f4f72646572206973206e6f7420696e2070656e64696e672073746174650000006044820152606401610719565b60088101805460ff1916600190811790915560405184917fd9a86b644eb5f5b43cc8a700849852481080361c7a4b00ba646d1b46c5585f9591611568919061371b565b60405180910390a2505050565b6000546001600160a01b0316331461159f5760405162461bcd60e51b815260040161071990613698565b600254806115ef5760405162461bcd60e51b815260206004820152601760248201527f4e6f206561726e696e677320746f2077697468647261770000000000000000006044820152606401610719565b6000600281905580546040516001600160a01b039091169083908381818185875af1925050503d8060008114611641576040519150601f19603f3d011682016040523d82523d6000602084013e611646565b606091505b505090508061168b5760405162461bcd60e51b815260206004820152601160248201527015da5d1a191c985dd85b0819985a5b1959607a1b6044820152606401610719565b6040518281527fa258f6dfe94df82db347c53d519887ce2c076bc1c6e3f28bb48aaeb1447025189060200160405180910390a15050565b816000811180156116d557506003548111155b6116f15760405162461bcd60e51b815260040161071990613497565b60008381526007602052604090206006810154600160a81b900460ff1661175a5760405162461bcd60e51b815260206004820152601860248201527f50726f64756374206973206e6f7420617661696c61626c6500000000000000006044820152606401610719565b82816005015410156117a35760405162461bcd60e51b8152602060048201526012602482015271496e73756666696369656e742073746f636b60701b6044820152606401610719565b600083116117f35760405162461bcd60e51b815260206004820152601f60248201527f5175616e74697479206d7573742062652067726561746572207468616e2030006044820152606401610719565b600681015461010090046001600160a01b031633036118625760405162461bcd60e51b815260206004820152602560248201527f53656c6c6572732063616e6e6f7420627579207468656972206f776e2070726f604482015264647563747360d81b6064820152608401610719565b60008382600401546118749190613639565b90508034146118c55760405162461bcd60e51b815260206004820152601860248201527f496e636f7272656374207061796d656e7420616d6f756e7400000000000000006044820152606401610719565b60006064600154836118d79190613639565b6118e19190613676565b905060006118ef8284613650565b9050858460050160008282546119059190613650565b92505081905550858460070160008282546119209190613663565b909155505060068481015461010090046001600160a01b03166000908152602091909152604081206003810180549192899261195d908490613663565b92505081905550818160040160008282546119789190613663565b9250508190555082600260008282546119919190613663565b9091555050600480549060006119a683613620565b909155505060408051610160810182526004548152602081018a905233918101919091526006860154610100908190046001600160a01b031660608301526080820189905260a0820186905260c0820184905260e0820185905281016000815242602080830191909152600060409283018190526004805482526008808452918490208551815592850151600180850191909155938501516002840180546001600160a01b039283166001600160a01b031991821617909155606087015160038601805491909316911617905560808501518382015560a0850151600584015560c0850151600684015560e08501516007840155610100850151918301805493949293909260ff19909116918490811115611ac357611ac3612dfb565b0217905550610120820151600982015561014090910151600a90910155336000818152600b60209081526040808320600480548254600180820185559387528587200155858552600c84528285208e8652845293829020805460ff19169091179055915482518b81529182018890528b9290917f619f9920b110dd40beb399a4a33eb50fc3fe6a9c3baf31be5e5a568fdac37f77910160405180910390a45050505050505050565b6001600160a01b0381166000908152600b6020908152604091829020805483518184028101840190945280845260609392830182828015611bcb57602002820191906000526020600020905b815481526020019060010190808311611bb7575b50505050509050919050565b3360009081526006602052604090206002015460ff16611c395760405162461bcd60e51b815260206004820152601f60248201527f596f75206d757374206265206120726567697374657265642073656c6c6572006044820152606401610719565b33600090815260066020526040902060020154610100900460ff16611c705760405162461bcd60e51b815260040161071990613729565b336000908152600660205260409020600581015480611cc85760405162461bcd60e51b81526020600482015260146024820152734e6f2066756e647320746f20776974686472617760601b6044820152606401610719565b600060058301819055604051339083908381818185875af1925050503d8060008114611d10576040519150601f19603f3d011682016040523d82523d6000602084013e611d15565b606091505b5050905080611d5a5760405162461bcd60e51b815260206004820152601160248201527015da5d1a191c985dd85b0819985a5b1959607a1b6044820152606401610719565b60405182815233907feaff4b37086828766ad3268786972c0cd24259d4c87a80f9d3963a3c3d999b0d90602001611568565b85600081118015611d9f57506003548111155b611dbb5760405162461bcd60e51b815260040161071990613497565b600087815260076020526040902060060154879061010090046001600160a01b03163314611dfb5760405162461bcd60e51b81526004016107199061376a565b60008881526007602052604090208751611e575760405162461bcd60e51b815260206004820152601c60248201527f50726f64756374206e616d652063616e6e6f7420626520656d707479000000006044820152606401610719565b60008511611ea75760405162461bcd60e51b815260206004820152601c60248201527f5072696365206d7573742062652067726561746572207468616e2030000000006044820152606401610719565b60018101611eb5898261354a565b5060028101611ec4888261354a565b5060038101611ed3878261354a565b50600481018590556005810184905560405189907ff2f6cb462e8728158dbba5fcbe8181d88ca70bd5a0a5ad7f718c99ad80ba00a590611f18908b90899089906137af565b60405180910390a2505050505050505050565b3360009081526006602052604090206002015460ff16611f8d5760405162461bcd60e51b815260206004820152601f60248201527f596f75206d757374206265206120726567697374657265642073656c6c6572006044820152606401610719565b33600090815260066020526040902060020154610100900460ff16611fc45760405162461bcd60e51b815260040161071990613729565b60008651116120155760405162461bcd60e51b815260206004820152601c60248201527f50726f64756374206e616d652063616e6e6f7420626520656d707479000000006044820152606401610719565b600083116120655760405162461bcd60e51b815260206004820152601c60248201527f5072696365206d7573742062652067726561746572207468616e2030000000006044820152606401610719565b600082116120b55760405162461bcd60e51b815260206004820152601c60248201527f53746f636b206d7573742062652067726561746572207468616e2030000000006044820152606401610719565b600380549060006120c583613620565b9190505550604051806101a00160405280600354815260200187815260200186815260200185815260200184815260200183815260200182600581111561210e5761210e612dfb565b8152602001336001600160a01b03168152602001600115158152602001600081526020016101f481526020016000815260200142815250600760006003548152602001908152602001600020600082015181600001556020820151816001019081612179919061354a565b506040820151600282019061218e908261354a565b50606082015160038201906121a3908261354a565b506080820151816004015560a0820151816005015560c08201518160060160006101000a81548160ff021916908360058111156121e2576121e2612dfb565b021790555060e0820151600682018054610100808601511515600160a81b0260ff60a81b196001600160a01b0390951690910293909316610100600160b01b03199091161791909117905561012082015160078201556101408201516008820155610160820151600982015561018090910151600a91820155336000818152602092835260408082206003805482546001810184559285529590932001939093555491519091907fef311eec1d40202fee1909ab585df5e024df1930dc6bba97722d1e60e91c01f79061099e908a9088906136f9565b600a6020528160005260406000208181548110610d7257600080fd5b806000811180156122e757506003548111155b6123035760405162461bcd60e51b815260040161071990613497565b600082815260076020526040902060060154829061010090046001600160a01b031633146123435760405162461bcd60e51b81526004016107199061376a565b50506000908152600760205260409020600601805460ff60a81b198116600160a81b9182900460ff1615909102179055565b60606000612381612bb9565b905060008167ffffffffffffffff81111561239e5761239e612ca9565b6040519080825280602002602001820160405280156123d757816020015b6123c4612c25565b8152602001906001900390816123bc5790505b509050600060015b60035481116126dc57600081815260076020526040902060060154600160a81b900460ff168015612420575060008181526007602052604090206005015415155b156126ca5760076000828152602001908152602001600020604051806101a00160405290816000820154815260200160018201805461245e906134c7565b80601f016020809104026020016040519081016040528092919081815260200182805461248a906134c7565b80156124d75780601f106124ac576101008083540402835291602001916124d7565b820191906000526020600020905b8154815290600101906020018083116124ba57829003601f168201915b505050505081526020016002820180546124f0906134c7565b80601f016020809104026020016040519081016040528092919081815260200182805461251c906134c7565b80156125695780601f1061253e57610100808354040283529160200191612569565b820191906000526020600020905b81548152906001019060200180831161254c57829003601f168201915b50505050508152602001600382018054612582906134c7565b80601f01602080910402602001604051908101604052809291908181526020018280546125ae906134c7565b80156125fb5780601f106125d0576101008083540402835291602001916125fb565b820191906000526020600020905b8154815290600101906020018083116125de57829003601f168201915b5050509183525050600482015460208201526005808301546040830152600683015460609092019160ff169081111561263657612636612dfb565b600581111561264757612647612dfb565b8152600682015461010081046001600160a01b03166020830152600160a81b900460ff16151560408201526007820154606082015260088201546080820152600982015460a0820152600a9091015460c09091015283518490849081106126b0576126b06136e3565b602002602001018190525081806126c690613620565b9250505b806126d481613620565b9150506123df565b50909392505050565b61274860405180610140016040528060006001600160a01b03168152602001606081526020016000151581526020016000151581526020016000815260200160008152602001600081526020016000815260200160008152602001600081525090565b6001600160a01b0380831660009081526006602090815260409182902082516101408101909352805490931682526001830180549293929184019161278c906134c7565b80601f01602080910402602001604051908101604052809291908181526020018280546127b8906134c7565b80156128055780601f106127da57610100808354040283529160200191612805565b820191906000526020600020905b8154815290600101906020018083116127e857829003601f168201915b5050509183525050600282015460ff808216151560208401526101009182900416151560408301526003830154606083015260048301546080830152600583015460a0830152600683015460c0830152600783015460e083015260089092015491015292915050565b6001600160a01b0381166000908152600a6020908152604091829020805483518184028101840190945280845260609392830182828015611bcb5760200282019190600052602060002090815481526020019060010190808311611bb75750505050509050919050565b600960205281600052604060002081815481106128f457600080fd5b60009182526020909120600490910201805460018201546002830180546001600160a01b0390931695509093509061292b906134c7565b80601f0160208091040260200160405190810160405280929190818152602001828054612957906134c7565b80156129a45780601f10612979576101008083540402835291602001916129a4565b820191906000526020600020905b81548152906001019060200180831161298757829003601f168201915b5050505050908060030154905084565b806000811180156129c757506004548111155b612a0a5760405162461bcd60e51b815260206004820152601460248201527313dc99195c88191bd95cc81b9bdd08195e1a5cdd60621b6044820152606401610719565b600082815260086020526040902060028101546001600160a01b03163314612a745760405162461bcd60e51b815260206004820152601f60248201527f4f6e6c792062757965722063616e20636f6e6669726d2064656c6976657279006044820152606401610719565b6001600882015460ff166004811115612a8f57612a8f612dfb565b14612adc5760405162461bcd60e51b815260206004820152601b60248201527f4f72646572206d757374206265207368697070656420666972737400000000006044820152606401610719565b60088101805460ff1916600390811790915542600a830155600680830154918301546001600160a01b03166000908152602091909152604081206005018054909190612b29908490613663565b92505081905550827fd9a86b644eb5f5b43cc8a700849852481080361c7a4b00ba646d1b46c5585f956003604051612b61919061371b565b60405180910390a2600381015460068201546040519081526001600160a01b039091169084907fe542d9ced06ebf48c00dc3567a112897fa34963ecc9a6ebf2beba9bc70f568949060200160405180910390a3505050565b60008060015b6003548111610d5057600081815260076020526040902060060154600160a81b900460ff168015612c00575060008181526007602052604090206005015415155b15612c135781612c0f81613620565b9250505b80612c1d81613620565b915050612bbf565b604051806101a0016040528060008152602001606081526020016060815260200160608152602001600081526020016000815260200160006005811115612c6e57612c6e612dfb565b815260200160006001600160a01b03168152602001600015158152602001600081526020016000815260200160008152602001600081525090565b634e487b7160e01b600052604160045260246000fd5b600082601f830112612cd057600080fd5b813567ffffffffffffffff80821115612ceb57612ceb612ca9565b604051601f8301601f19908116603f01168101908282118183101715612d1357612d13612ca9565b81604052838152866020858801011115612d2c57600080fd5b836020870160208301376000602085830101528094505050505092915050565b600080600060608486031215612d6157600080fd5b8335925060208401359150604084013567ffffffffffffffff811115612d8657600080fd5b612d9286828701612cbf565b9150509250925092565b600060208284031215612dae57600080fd5b5035919050565b6000815180845260005b81811015612ddb57602081850181015186830182015201612dbf565b506000602082860101526020601f19601f83011685010191505092915050565b634e487b7160e01b600052602160045260246000fd5b60068110612e2157612e21612dfb565b9052565b60006020808301818452808551808352604092508286019150828160051b87010184880160005b83811015612f3857603f1989840301855281516101a08151855288820151818a870152612e7b82870182612db5565b9150508782015185820389870152612e938282612db5565b91505060608083015186830382880152612ead8382612db5565b92505050608080830151818701525060a080830151818701525060c080830151612ed982880182612e11565b505060e0828101516001600160a01b031690860152610100808301511515908601526101208083015190860152610140808301519086015261016080830151908601526101809182015191909401529386019390860190600101612e4c565b509098975050505050505050565b80356001600160a01b0381168114612f5d57600080fd5b919050565b60008060408385031215612f7557600080fd5b612f7e83612f46565b946020939093013593505050565b60006020808301818452808551808352604092508286019150828160051b87010184880160005b83811015612f3857888303603f19018552815180516001600160a01b03168452878101518885015286810151608088860181905290612ff482870182612db5565b60609384015196909301959095525094870194925090860190600101612fb3565b60006020828403121561302757600080fd5b813567ffffffffffffffff81111561303e57600080fd5b61304a84828501612cbf565b949350505050565b60006020828403121561306457600080fd5b61306d82612f46565b9392505050565b6001600160a01b038b168152610140602082018190526000906130998382018d612db5565b9a1515604084015250509615156060880152608087019590955260a086019390935260c085019190915260e08401526101008301526101209091015292915050565b8d81526101a0602082015260006130f66101a083018f612db5565b8281036040840152613108818f612db5565b9050828103606084015261311c818e612db5565b9150508a60808301528960a083015261313860c083018a612e11565b6001600160a01b039790971660e082015294151561010086015261012085019390935261014084019190915261016083015261018090910152979650505050505050565b6000806040838503121561318f57600080fd5b50508035926020909101359150565b6020808252825182820181905260009190848201906040850190845b818110156131d6578351835292840192918401916001016131ba565b50909695505050505050565b60058110612e2157612e21612dfb565b8b8152602081018b90526001600160a01b038a81166040830152891660608201526080810188905260a0810187905260c0810186905260e0810185905261016081016132426101008301866131e2565b61012082019390935261014001529998505050505050505050565b60008060008060008060c0878903121561327657600080fd5b86359550602087013567ffffffffffffffff8082111561329557600080fd5b6132a18a838b01612cbf565b965060408901359150808211156132b757600080fd5b6132c38a838b01612cbf565b955060608901359150808211156132d957600080fd5b506132e689828a01612cbf565b9350506080870135915060a087013590509295509295509295565b60008060008060008060c0878903121561331a57600080fd5b863567ffffffffffffffff8082111561333257600080fd5b61333e8a838b01612cbf565b9750602089013591508082111561335457600080fd5b6133608a838b01612cbf565b9650604089013591508082111561337657600080fd5b5061338389828a01612cbf565b945050606087013592506080870135915060a0870135600681106133a657600080fd5b809150509295509295509295565b602081526133ce6020820183516001600160a01b03169052565b600060208301516101408060408501526133ec610160850183612db5565b91506040850151613401606086018215159052565b506060850151801515608086015250608085015160a085015260a085015160c085015260c085015160e085015260e0850151610100818187015280870151915050610120818187015280870151838701525050508091505092915050565b60018060a01b03851681528360208201526080604082015260006134866080830185612db5565b905082606083015295945050505050565b602080825260169082015275141c9bd91d58dd08191bd95cc81b9bdd08195e1a5cdd60521b604082015260600190565b600181811c908216806134db57607f821691505b602082108103610d5057634e487b7160e01b600052602260045260246000fd5b601f82111561354557600081815260208120601f850160051c810160208610156135225750805b601f850160051c820191505b818110156135415782815560010161352e565b5050505b505050565b815167ffffffffffffffff81111561356457613564612ca9565b6135788161357284546134c7565b846134fb565b602080601f8311600181146135ad57600084156135955750858301515b600019600386901b1c1916600185901b178555613541565b600085815260208120601f198616915b828110156135dc578886015182559484019460019091019084016135bd565b50858210156135fa5787850151600019600388901b60f8161c191681555b5050505050600190811b01905550565b634e487b7160e01b600052601160045260246000fd5b6000600182016136325761363261360a565b5060010190565b80820281158282048414176111e1576111e161360a565b818103818111156111e1576111e161360a565b808201808211156111e1576111e161360a565b60008261369357634e487b7160e01b600052601260045260246000fd5b500490565b6020808252602b908201527f4f6e6c7920706c6174666f726d206f776e65722063616e20706572666f726d2060408201526a3a3434b99030b1ba34b7b760a91b606082015260800190565b634e487b7160e01b600052603260045260246000fd5b60408152600061370c6040830185612db5565b90508260208301529392505050565b602081016111e182846131e2565b60208082526021908201527f596f75722073656c6c6572206163636f756e74206973206e6f742061637469766040820152606560f81b606082015260800190565b60208082526025908201527f596f7520617265206e6f7420746865206f776e6572206f6620746869732070726040820152641bd91d58dd60da1b606082015260800190565b6060815260006137c26060830186612db5565b6020830194909452506040015291905056fea26469706673582212207938459c21059da2c17d4cbade710165328dd352690ce28706e80b8324356e7964736f6c63430008130033",
  "immutableReferences": {},
  "source": "// SPDX-License-Identifier: MIT\npragma solidity 0.8.19;\n\n/**\n * @title Decentralized Marketplace\n * @dev A multi-vendor marketplace with escrow, order tracking, and ratings\n * @author Assignment 3 - Blockchain Technology\n */\ncontract Marketplace {\n    \n    // ==================== State Variables ====================\n    \n    address public platformOwner;\n    uint256 public platformCommissionRate = 2; // 2% commission\n    uint256 public totalPlatformEarnings;\n    \n    uint256 public productCounter = 0;\n    uint256 public orderCounter = 0;\n    uint256 public sellerCounter = 0;\n    \n    // ==================== Enums ====================\n    \n    enum OrderStatus { Pending, Shipped, Delivered, Completed, Cancelled }\n    enum ProductCategory { Electronics, Clothing, Books, Home, Sports, Other }\n    \n    // ==================== Structs ====================\n    \n    struct Seller {\n        address sellerAddress;\n        string name;\n        bool isRegistered;\n        bool isActive;\n        uint256 totalSales;\n        uint256 totalEarnings;\n        uint256 pendingWithdrawal;\n        uint256 rating; // Average rating * 100 (for precision)\n        uint256 totalRatings;\n        uint256 registeredAt;\n    }\n    \n    struct Product {\n        uint256 id;\n        string name;\n        string description;\n        string imageHash; // IPFS hash or URL\n        uint256 price;\n        uint256 stock;\n        ProductCategory category;\n        address seller;\n        bool isActive;\n        uint256 totalSales;\n        uint256 rating; // Average rating * 100\n        uint256 totalRatings;\n        uint256 createdAt;\n    }\n    \n    struct Order {\n        uint256 id;\n        uint256 productId;\n        address buyer;\n        address seller;\n        uint256 quantity;\n        uint256 totalPrice;\n        uint256 sellerAmount;\n        uint256 platformFee;\n        OrderStatus status;\n        uint256 createdAt;\n        uint256 completedAt;\n    }\n    \n    struct Review {\n        address buyer;\n        uint256 rating; // 1-5\n        string comment;\n        uint256 timestamp;\n    }\n    \n    // ==================== Mappings ====================\n    \n    mapping(address => Seller) public sellers;\n    mapping(uint256 => Product) public products;\n    mapping(uint256 => Order) public orders;\n    mapping(uint256 => Review[]) public productReviews;\n    mapping(address => uint256[]) public sellerProducts;\n    mapping(address => uint256[]) public buyerOrders;\n    mapping(address => mapping(uint256 => bool)) public hasPurchased; // buyer => productId => purchased\n    \n    // ==================== Events ====================\n    \n    event SellerRegistered(address indexed seller, string name, uint256 timestamp);\n    event ProductAdded(uint256 indexed productId, address indexed seller, string name, uint256 price);\n    event ProductUpdated(uint256 indexed productId, string name, uint256 price, uint256 stock);\n    event ProductPurchased(uint256 indexed orderId, uint256 indexed productId, address indexed buyer, uint256 quantity, uint256 totalPrice);\n    event OrderStatusUpdated(uint256 indexed orderId, OrderStatus status);\n    event OrderCompleted(uint256 indexed orderId, address indexed seller, uint256 amount);\n    event FundsWithdrawn(address indexed seller, uint256 amount);\n    event ProductReviewed(uint256 indexed productId, address indexed buyer, uint256 rating);\n    event PlatformCommissionWithdrawn(uint256 amount);\n    \n    // ==================== Modifiers ====================\n    \n    modifier onlyPlatformOwner() {\n        require(msg.sender == platformOwner, \"Only platform owner can perform this action\");\n        _;\n    }\n    \n    modifier onlyRegisteredSeller() {\n        require(sellers[msg.sender].isRegistered, \"You must be a registered seller\");\n        require(sellers[msg.sender].isActive, \"Your seller account is not active\");\n        _;\n    }\n    \n    modifier onlyProductOwner(uint256 _productId) {\n        require(products[_productId].seller == msg.sender, \"You are not the owner of this product\");\n        _;\n    }\n    \n    modifier productExists(uint256 _productId) {\n        require(_productId > 0 && _productId <= productCounter, \"Product does not exist\");\n        _;\n    }\n    \n    modifier orderExists(uint256 _orderId) {\n        require(_orderId > 0 && _orderId <= orderCounter, \"Order does not exist\");\n        _;\n    }\n    \n    // ==================== Constructor ====================\n    \n    constructor() {\n        platformOwner = msg.sender;\n    }\n    \n    // ==================== Seller Functions ====================\n    \n    /**\n     * @dev Register as a seller on the platform\n     * @param _name Name of the seller/store\n     */\n    function registerSeller(string memory _name) external {\n        require(!sellers[msg.sender].isRegistered, \"Already registered as seller\");\n        require(bytes(_name).length > 0, \"Name cannot be empty\");\n        \n        sellerCounter++;\n        sellers[msg.sender] = Seller({\n            sellerAddress: msg.sender,\n            name: _name,\n            isRegistered: true,\n            isActive: true,\n            totalSales: 0,\n            totalEarnings: 0,\n            pendingWithdrawal: 0,\n            rating: 500, // 5.00 * 100 (default rating)\n            totalRatings: 0,\n            registeredAt: block.timestamp\n        });\n        \n        emit SellerRegistered(msg.sender, _name, block.timestamp);\n    }\n    \n    /**\n     * @dev Add a new product to the marketplace\n     */\n    function addProduct(\n        string memory _name,\n        string memory _description,\n        string memory _imageHash,\n        uint256 _price,\n        uint256 _stock,\n        ProductCategory _category\n    ) external onlyRegisteredSeller {\n        require(bytes(_name).length > 0, \"Product name cannot be empty\");\n        require(_price > 0, \"Price must be greater than 0\");\n        require(_stock > 0, \"Stock must be greater than 0\");\n        \n        productCounter++;\n        products[productCounter] = Product({\n            id: productCounter,\n            name: _name,\n            description: _description,\n            imageHash: _imageHash,\n            price: _price,\n            stock: _stock,\n            category: _category,\n            seller: msg.sender,\n            isActive: true,\n            totalSales: 0,\n            rating: 500, // 5.00 * 100\n            totalRatings: 0,\n            createdAt: block.timestamp\n        });\n        \n        sellerProducts[msg.sender].push(productCounter);\n        \n        emit ProductAdded(productCounter, msg.sender, _name, _price);\n    }\n    \n    /**\n     * @dev Update product details\n     */\n    function updateProduct(\n        uint256 _productId,\n        string memory _name,\n        string memory _description,\n        string memory _imageHash,\n        uint256 _price,\n        uint256 _stock\n    ) external productExists(_productId) onlyProductOwner(_productId) {\n        Product storage product = products[_productId];\n        \n        require(bytes(_name).length > 0, \"Product name cannot be empty\");\n        require(_price > 0, \"Price must be greater than 0\");\n        \n        product.name = _name;\n        product.description = _description;\n        product.imageHash = _imageHash;\n        product.price = _price;\n        product.stock = _stock;\n        \n        emit ProductUpdated(_productId, _name, _price, _stock);\n    }\n    \n    /**\n     * @dev Toggle product active status\n     */\n    function toggleProductStatus(uint256 _productId) \n        external \n        productExists(_productId) \n        onlyProductOwner(_productId) \n    {\n        products[_productId].isActive = !products[_productId].isActive;\n    }\n    \n    /**\n     * @dev Withdraw seller earnings\n     */\n    function withdrawEarnings() external onlyRegisteredSeller {\n        Seller storage seller = sellers[msg.sender];\n        uint256 amount = seller.pendingWithdrawal;\n        \n        require(amount > 0, \"No funds to withdraw\");\n        \n        seller.pendingWithdrawal = 0;\n        \n        (bool success, ) = payable(msg.sender).call{value: amount}(\"\");\n        require(success, \"Withdrawal failed\");\n        \n        emit FundsWithdrawn(msg.sender, amount);\n    }\n    \n    // ==================== Buyer Functions ====================\n    \n    /**\n     * @dev Purchase a product\n     */\n    function purchaseProduct(uint256 _productId, uint256 _quantity) \n        external \n        payable \n        productExists(_productId) \n    {\n        Product storage product = products[_productId];\n        \n        require(product.isActive, \"Product is not available\");\n        require(product.stock >= _quantity, \"Insufficient stock\");\n        require(_quantity > 0, \"Quantity must be greater than 0\");\n        require(msg.sender != product.seller, \"Sellers cannot buy their own products\");\n        \n        uint256 totalPrice = product.price * _quantity;\n        require(msg.value == totalPrice, \"Incorrect payment amount\");\n        \n        // Calculate platform fee and seller amount\n        uint256 platformFee = (totalPrice * platformCommissionRate) / 100;\n        uint256 sellerAmount = totalPrice - platformFee;\n        \n        // Update stock\n        product.stock -= _quantity;\n        product.totalSales += _quantity;\n        \n        // Update seller stats\n        Seller storage seller = sellers[product.seller];\n        seller.totalSales += _quantity;\n        seller.totalEarnings += sellerAmount;\n        \n        // Update platform earnings\n        totalPlatformEarnings += platformFee;\n        \n        // Create order\n        orderCounter++;\n        orders[orderCounter] = Order({\n            id: orderCounter,\n            productId: _productId,\n            buyer: msg.sender,\n            seller: product.seller,\n            quantity: _quantity,\n            totalPrice: totalPrice,\n            sellerAmount: sellerAmount,\n            platformFee: platformFee,\n            status: OrderStatus.Pending,\n            createdAt: block.timestamp,\n            completedAt: 0\n        });\n        \n        buyerOrders[msg.sender].push(orderCounter);\n        hasPurchased[msg.sender][_productId] = true;\n        \n        emit ProductPurchased(orderCounter, _productId, msg.sender, _quantity, totalPrice);\n    }\n    \n    /**\n     * @dev Confirm order delivery (releases funds to seller)\n     */\n    function confirmDelivery(uint256 _orderId) external orderExists(_orderId) {\n        Order storage order = orders[_orderId];\n        \n        require(order.buyer == msg.sender, \"Only buyer can confirm delivery\");\n        require(order.status == OrderStatus.Shipped, \"Order must be shipped first\");\n        \n        order.status = OrderStatus.Completed;\n        order.completedAt = block.timestamp;\n        \n        // Release funds to seller\n        sellers[order.seller].pendingWithdrawal += order.sellerAmount;\n        \n        emit OrderStatusUpdated(_orderId, OrderStatus.Completed);\n        emit OrderCompleted(_orderId, order.seller, order.sellerAmount);\n    }\n    \n    /**\n     * @dev Submit a review for a purchased product\n     */\n    function reviewProduct(uint256 _productId, uint256 _rating, string memory _comment) \n        external \n        productExists(_productId) \n    {\n        require(hasPurchased[msg.sender][_productId], \"You must purchase the product to review\");\n        require(_rating >= 1 && _rating <= 5, \"Rating must be between 1 and 5\");\n        \n        Product storage product = products[_productId];\n        \n        // Add review\n        productReviews[_productId].push(Review({\n            buyer: msg.sender,\n            rating: _rating,\n            comment: _comment,\n            timestamp: block.timestamp\n        }));\n        \n        // Update product rating\n        product.totalRatings++;\n        product.rating = ((product.rating * (product.totalRatings - 1)) + (_rating * 100)) / product.totalRatings;\n        \n        // Update seller rating\n        Seller storage seller = sellers[product.seller];\n        seller.totalRatings++;\n        seller.rating = ((seller.rating * (seller.totalRatings - 1)) + (_rating * 100)) / seller.totalRatings;\n        \n        emit ProductReviewed(_productId, msg.sender, _rating);\n    }\n    \n    // ==================== Seller Order Management ====================\n    \n    /**\n     * @dev Mark order as shipped\n     */\n    function markOrderAsShipped(uint256 _orderId) external orderExists(_orderId) {\n        Order storage order = orders[_orderId];\n        \n        require(order.seller == msg.sender, \"Only seller can update order status\");\n        require(order.status == OrderStatus.Pending, \"Order is not in pending state\");\n        \n        order.status = OrderStatus.Shipped;\n        \n        emit OrderStatusUpdated(_orderId, OrderStatus.Shipped);\n    }\n    \n    // ==================== Platform Owner Functions ====================\n    \n    /**\n     * @dev Withdraw platform commission\n     */\n    function withdrawPlatformEarnings() external onlyPlatformOwner {\n        uint256 amount = totalPlatformEarnings;\n        require(amount > 0, \"No earnings to withdraw\");\n        \n        totalPlatformEarnings = 0;\n        \n        (bool success, ) = payable(platformOwner).call{value: amount}(\"\");\n        require(success, \"Withdrawal failed\");\n        \n        emit PlatformCommissionWithdrawn(amount);\n    }\n    \n    /**\n     * @dev Update commission rate\n     */\n    function updateCommissionRate(uint256 _newRate) external onlyPlatformOwner {\n        require(_newRate <= 10, \"Commission rate cannot exceed 10%\");\n        platformCommissionRate = _newRate;\n    }\n    \n    // ==================== View Functions ====================\n    \n    /**\n     * @dev Get all products\n     */\n    function getAllProducts() external view returns (Product[] memory) {\n        Product[] memory allProducts = new Product[](productCounter);\n        for (uint256 i = 1; i <= productCounter; i++) {\n            allProducts[i - 1] = products[i];\n        }\n        return allProducts;\n    }\n    \n    /**\n     * @dev Get active products only\n     */\n    function getActiveProducts() external view returns (Product[] memory) {\n        // First pass: count active products\n        uint256 activeCount = _countActiveProducts();\n        \n        // Second pass: populate array\n        Product[] memory activeProducts = new Product[](activeCount);\n        uint256 index = 0;\n        \n        for (uint256 i = 1; i <= productCounter; i++) {\n            if (products[i].isActive && products[i].stock > 0) {\n                activeProducts[index] = products[i];\n                index++;\n            }\n        }\n        return activeProducts;\n    }\n    \n    /**\n     * @dev Internal function to count active products\n     */\n    function _countActiveProducts() private view returns (uint256) {\n        uint256 count = 0;\n        for (uint256 i = 1; i <= productCounter; i++) {\n            if (products[i].isActive && products[i].stock > 0) {\n                count++;\n            }\n        }\n        return count;\n    }\n    \n    /**\n     * @dev Get products by seller\n     */\n    function getSellerProducts(address _seller) external view returns (uint256[] memory) {\n        return sellerProducts[_seller];\n    }\n    \n    /**\n     * @dev Get buyer orders\n     */\n    function getBuyerOrders(address _buyer) external view returns (uint256[] memory) {\n        return buyerOrders[_buyer];\n    }\n    \n    /**\n     * @dev Get product reviews\n     */\n    function getProductReviews(uint256 _productId) external view returns (Review[] memory) {\n        return productReviews[_productId];\n    }\n    \n    /**\n     * @dev Get seller info\n     */\n    function getSellerInfo(address _seller) external view returns (Seller memory) {\n        return sellers[_seller];\n    }\n    \n    /**\n     * @dev Check if address is registered seller\n     */\n    function isRegisteredSeller(address _address) external view returns (bool) {\n        return sellers[_address].isRegistered && sellers[_address].isActive;\n    }\n    \n    /**\n     * @dev Get platform statistics\n     */\n    function getPlatformStats() external view returns (\n        uint256 totalProducts,\n        uint256 totalOrders,\n        uint256 totalSellers,\n        uint256 platformEarnings,\n        uint256 commissionRate\n    ) {\n        return (\n            productCounter,\n            orderCounter,\n            sellerCounter,\n            totalPlatformEarnings,\n            platformCommissionRate\n        );\n    }\n}\n",
  "sourcePath": "/Users/hp/Library/CloudStorage/OneDrive-FASTNationalUniversity/Fast Nu Sem 5/Blockchain/Codes/I235010,Ft-b,assignment#3/contracts/Marketplace.sol",
  "compiler": {
    "name": "solc",
    "version": "0.8.19+commit.7dd6d404.Emscripten.clang"
  },
  "schemaVersion": "3.4.16",
  "updatedAt": "2025-11-11T05:13:14.201Z",
  "networkType": "ethereum",
  "devdoc": {
    "author": "Assignment 3 - Blockchain Technology",
    "details": "A multi-vendor marketplace with escrow, order tracking, and ratings",
    "kind": "dev",
    "methods": {
      "addProduct(string,string,string,uint256,uint256,uint8)": {
        "details": "Add a new product to the marketplace"
      },
      "confirmDelivery(uint256)": {
        "details": "Confirm order delivery (releases funds to seller)"
      },
      "getActiveProducts()": {
        "details": "Get active products only"
      },
      "getAllProducts()": {
        "details": "Get all products"
      },
      "getBuyerOrders(address)": {
        "details": "Get buyer orders"
      },
      "getPlatformStats()": {
        "details": "Get platform statistics"
      },
      "getProductReviews(uint256)": {
        "details": "Get product reviews"
      },
      "getSellerInfo(address)": {
        "details": "Get seller info"
      },
      "getSellerProducts(address)": {
        "details": "Get products by seller"
      },
      "isRegisteredSeller(address)": {
        "details": "Check if address is registered seller"
      },
      "markOrderAsShipped(uint256)": {
        "details": "Mark order as shipped"
      },
      "purchaseProduct(uint256,uint256)": {
        "details": "Purchase a product"
      },
      "registerSeller(string)": {
        "details": "Register as a seller on the platform",
        "params": {
          "_name": "Name of the seller/store"
        }
      },
      "reviewProduct(uint256,uint256,string)": {
        "details": "Submit a review for a purchased product"
      },
      "toggleProductStatus(uint256)": {
        "details": "Toggle product active status"
      },
      "updateCommissionRate(uint256)": {
        "details": "Update commission rate"
      },
      "updateProduct(uint256,string,string,string,uint256,uint256)": {
        "details": "Update product details"
      },
      "withdrawEarnings()": {
        "details": "Withdraw seller earnings"
      },
      "withdrawPlatformEarnings()": {
        "details": "Withdraw platform commission"
      }
    },
    "title": "Decentralized Marketplace",
    "version": 1
  },
  "userdoc": {
    "kind": "user",
    "methods": {},
    "version": 1
  }
}